{
  "contractName": "Lottery",
  "abi": [
    {
      "constant": true,
      "inputs": [
        {
          "name": "",
          "type": "uint256"
        }
      ],
      "name": "winner",
      "outputs": [
        {
          "name": "playerAddress",
          "type": "address"
        },
        {
          "name": "playerName",
          "type": "string"
        },
        {
          "name": "emailId",
          "type": "string"
        },
        {
          "name": "phoneNumber",
          "type": "string"
        },
        {
          "name": "isExist",
          "type": "bool"
        }
      ],
      "payable": false,
      "stateMutability": "view",
      "type": "function"
    },
    {
      "constant": true,
      "inputs": [],
      "name": "state",
      "outputs": [
        {
          "name": "",
          "type": "uint8"
        }
      ],
      "payable": false,
      "stateMutability": "view",
      "type": "function"
    },
    {
      "inputs": [],
      "payable": false,
      "stateMutability": "nonpayable",
      "type": "constructor"
    },
    {
      "constant": false,
      "inputs": [
        {
          "name": "_name",
          "type": "string"
        },
        {
          "name": "_emailId",
          "type": "string"
        },
        {
          "name": "_phoneNumber",
          "type": "string"
        }
      ],
      "name": "registerPlayer",
      "outputs": [
        {
          "name": "result",
          "type": "string"
        }
      ],
      "payable": false,
      "stateMutability": "nonpayable",
      "type": "function"
    },
    {
      "constant": false,
      "inputs": [],
      "name": "startLottery",
      "outputs": [],
      "payable": false,
      "stateMutability": "nonpayable",
      "type": "function"
    },
    {
      "constant": false,
      "inputs": [],
      "name": "stopLottery",
      "outputs": [],
      "payable": false,
      "stateMutability": "nonpayable",
      "type": "function"
    },
    {
      "constant": false,
      "inputs": [],
      "name": "buyLotteryTickets",
      "outputs": [
        {
          "name": "result",
          "type": "string"
        }
      ],
      "payable": false,
      "stateMutability": "nonpayable",
      "type": "function"
    },
    {
      "constant": false,
      "inputs": [],
      "name": "processLotteryWinners",
      "outputs": [],
      "payable": false,
      "stateMutability": "nonpayable",
      "type": "function"
    },
    {
      "constant": true,
      "inputs": [],
      "name": "getLotteryState",
      "outputs": [
        {
          "name": "_state",
          "type": "uint8"
        }
      ],
      "payable": false,
      "stateMutability": "view",
      "type": "function"
    },
    {
      "constant": true,
      "inputs": [],
      "name": "isPlayerRegistered",
      "outputs": [
        {
          "name": "_status",
          "type": "bool"
        }
      ],
      "payable": false,
      "stateMutability": "view",
      "type": "function"
    },
    {
      "constant": true,
      "inputs": [],
      "name": "getLotteryTickets",
      "outputs": [
        {
          "components": [
            {
              "name": "lotteryId",
              "type": "uint256"
            },
            {
              "name": "price",
              "type": "uint256"
            },
            {
              "name": "ticketOwner",
              "type": "address"
            }
          ],
          "name": "_tickets",
          "type": "tuple[]"
        }
      ],
      "payable": false,
      "stateMutability": "view",
      "type": "function"
    },
    {
      "constant": true,
      "inputs": [],
      "name": "getPlayers",
      "outputs": [
        {
          "components": [
            {
              "name": "playerAddress",
              "type": "address"
            },
            {
              "name": "playerName",
              "type": "string"
            },
            {
              "name": "emailId",
              "type": "string"
            },
            {
              "name": "phoneNumber",
              "type": "string"
            },
            {
              "name": "isExist",
              "type": "bool"
            }
          ],
          "name": "_players",
          "type": "tuple[]"
        }
      ],
      "payable": false,
      "stateMutability": "view",
      "type": "function"
    },
    {
      "constant": true,
      "inputs": [],
      "name": "getWinner",
      "outputs": [
        {
          "components": [
            {
              "name": "playerAddress",
              "type": "address"
            },
            {
              "name": "playerName",
              "type": "string"
            },
            {
              "name": "emailId",
              "type": "string"
            },
            {
              "name": "phoneNumber",
              "type": "string"
            },
            {
              "name": "isExist",
              "type": "bool"
            }
          ],
          "name": "_players",
          "type": "tuple[]"
        }
      ],
      "payable": false,
      "stateMutability": "view",
      "type": "function"
    },
    {
      "constant": true,
      "inputs": [],
      "name": "fetchMyTickets",
      "outputs": [
        {
          "components": [
            {
              "name": "lotteryId",
              "type": "uint256"
            },
            {
              "name": "price",
              "type": "uint256"
            },
            {
              "name": "ticketOwner",
              "type": "address"
            }
          ],
          "name": "_tickets",
          "type": "tuple[]"
        }
      ],
      "payable": false,
      "stateMutability": "view",
      "type": "function"
    }
  ],
  "bytecode": "0x608060405234801561001057600080fd5b5060008060006101000a81548160ff0219169083600281111561002f57fe5b021790555033600060016101000a81548173ffffffffffffffffffffffffffffffffffffffff021916908373ffffffffffffffffffffffffffffffffffffffff160217905550612435806100846000396000f3fe6080604052600436106100c5576000357c0100000000000000000000000000000000000000000000000000000000900463ffffffff168063160344e2146100ca5780631cbeae5e146100e15780632c1f2d90146101225780632c43929e146101395780633229f0e114610176578063442db8fb146101a15780634b4739df146101cc5780636b68c03c146101f75780638b5b9ccc146102225780638e7ea5b21461024d578063a6d5442714610278578063c19d93fb146102a3578063d5c62498146102ce575b600080fd5b3480156100d657600080fd5b506100df6102e5565b005b3480156100ed57600080fd5b5061010860048036036101039190810190611c95565b61039c565b6040516101199594939291906120b1565b60405180910390f35b34801561012e57600080fd5b506101376105d6565b005b34801561014557600080fd5b50610160600480360361015b9190810190611bfe565b610924565b60405161016d9190612193565b60405180910390f35b34801561018257600080fd5b5061018b610d2a565b6040516101989190612119565b60405180910390f35b3480156101ad57600080fd5b506101b6610e81565b6040516101c39190612119565b60405180910390f35b3480156101d857600080fd5b506101e1610fdd565b6040516101ee919061215d565b60405180910390f35b34801561020357600080fd5b5061020c611034565b6040516102199190612178565b60405180910390f35b34801561022e57600080fd5b5061023761104a565b604051610244919061213b565b60405180910390f35b34801561025957600080fd5b50610262611393565b60405161026f919061213b565b60405180910390f35b34801561028457600080fd5b5061028d61164a565b60405161029a9190612193565b60405180910390f35b3480156102af57600080fd5b506102b861191f565b6040516102c59190612178565b60405180910390f35b3480156102da57600080fd5b506102e3611931565b005b3373ffffffffffffffffffffffffffffffffffffffff16600060019054906101000a900473ffffffffffffffffffffffffffffffffffffffff1673ffffffffffffffffffffffffffffffffffffffff16141515610377576040517f08c379a000000000000000000000000000000000000000000000000000000000815260040161036e90612215565b60405180910390fd5b60016000806101000a81548160ff0219169083600281111561039557fe5b0217905550565b6001818154811015156103ab57fe5b90600052602060002090600502016000915090508060000160009054906101000a900473ffffffffffffffffffffffffffffffffffffffff1690806001018054600181600116156101000203166002900480601f01602080910402602001604051908101604052809291908181526020018280546001816001161561010002031660029004801561047d5780601f106104525761010080835404028352916020019161047d565b820191906000526020600020905b81548152906001019060200180831161046057829003601f168201915b505050505090806002018054600181600116156101000203166002900480601f01602080910402602001604051908101604052809291908181526020018280546001816001161561010002031660029004801561051b5780601f106104f05761010080835404028352916020019161051b565b820191906000526020600020905b8154815290600101906020018083116104fe57829003601f168201915b505050505090806003018054600181600116156101000203166002900480601f0160208091040260200160405190810160405280929190818152602001828054600181600116156101000203166002900480156105b95780601f1061058e576101008083540402835291602001916105b9565b820191906000526020600020905b81548152906001019060200180831161059c57829003601f168201915b5050505050908060040160009054906101000a900460ff16905085565b600060019054906101000a900473ffffffffffffffffffffffffffffffffffffffff1673ffffffffffffffffffffffffffffffffffffffff163373ffffffffffffffffffffffffffffffffffffffff16141515610668576040517f08c379a000000000000000000000000000000000000000000000000000000000815260040161065f90612255565b60405180910390fd5b60006002600060159054906101000a900463ffffffff1663ffffffff1681151561068e57fe5b049050600060048054905042600480549050604051602001808381526020018281526020019250505060405160208183030381529060405280519060200120600190048115156106da57fe5b0690506106e56119e8565b6004600183038154811015156106f757fe5b90600052602060002090600302016060604051908101604052908160008201548152602001600182015481526020016002820160009054906101000a900473ffffffffffffffffffffffffffffffffffffffff1673ffffffffffffffffffffffffffffffffffffffff1673ffffffffffffffffffffffffffffffffffffffff16815250509050600160026000836040015173ffffffffffffffffffffffffffffffffffffffff1673ffffffffffffffffffffffffffffffffffffffff168152602001908152602001600020908060018154018082558091505090600182039060005260206000209060050201600090919290919091506000820160009054906101000a900473ffffffffffffffffffffffffffffffffffffffff168160000160006101000a81548173ffffffffffffffffffffffffffffffffffffffff021916908373ffffffffffffffffffffffffffffffffffffffff1602179055506001820181600101908054600181600116156101000203166002900461087b929190611a20565b50600282018160020190805460018160011615610100020316600290046108a3929190611a20565b50600382018160030190805460018160011615610100020316600290046108cb929190611a20565b506004820160009054906101000a900460ff168160040160006101000a81548160ff02191690831515021790555050505060008060006101000a81548160ff0219169083600281111561091a57fe5b0217905550505050565b60603373ffffffffffffffffffffffffffffffffffffffff16600060019054906101000a900473ffffffffffffffffffffffffffffffffffffffff1673ffffffffffffffffffffffffffffffffffffffff161415151561098357600080fd5b6000600281111561099057fe5b6000809054906101000a900460ff1660028111156109aa57fe5b141580156109dc57506002808111156109bf57fe5b6000809054906101000a900460ff1660028111156109d957fe5b14155b1515610a1d576040517f08c379a0000000000000000000000000000000000000000000000000000000008152600401610a14906121d5565b60405180910390fd5b6040805190810160405280600881526020017f4641494c202121210000000000000000000000000000000000000000000000008152509050600260003373ffffffffffffffffffffffffffffffffffffffff1673ffffffffffffffffffffffffffffffffffffffff16815260200190815260200160002060040160009054906101000a900460ff161515610d2057610ab3611aa7565b60a0604051908101604052803373ffffffffffffffffffffffffffffffffffffffff16815260200186815260200185815260200184815260200160011515815250905080600260003373ffffffffffffffffffffffffffffffffffffffff1673ffffffffffffffffffffffffffffffffffffffff16815260200190815260200160002060008201518160000160006101000a81548173ffffffffffffffffffffffffffffffffffffffff021916908373ffffffffffffffffffffffffffffffffffffffff1602179055506020820151816001019080519060200190610b99929190611aef565b506040820151816002019080519060200190610bb6929190611aef565b506060820151816003019080519060200190610bd3929190611aef565b5060808201518160040160006101000a81548160ff0219169083151502179055509050506003819080600181540180825580915050906001820390600052602060002090600502016000909192909190915060008201518160000160006101000a81548173ffffffffffffffffffffffffffffffffffffffff021916908373ffffffffffffffffffffffffffffffffffffffff1602179055506020820151816001019080519060200190610c88929190611aef565b506040820151816002019080519060200190610ca5929190611aef565b506060820151816003019080519060200190610cc2929190611aef565b5060808201518160040160006101000a81548160ff0219169083151502179055505050506040805190810160405280601b81526020017f52656769737465726564205375636365737366756c6c792021212100000000008152509150505b8090509392505050565b6060600080905060008090505b600480549050811015610e7c573373ffffffffffffffffffffffffffffffffffffffff16600482815481101515610d6a57fe5b906000526020600020906003020160020160009054906101000a900473ffffffffffffffffffffffffffffffffffffffff1673ffffffffffffffffffffffffffffffffffffffff161415610e6f57600481815481101515610dc757fe5b90600052602060002090600302016060604051908101604052908160008201548152602001600182015481526020016002820160009054906101000a900473ffffffffffffffffffffffffffffffffffffffff1673ffffffffffffffffffffffffffffffffffffffff1673ffffffffffffffffffffffffffffffffffffffff16815250508383815181101515610e5957fe5b9060200190602002018190525081806001019250505b8080600101915050610d37565b505090565b6060600060019054906101000a900473ffffffffffffffffffffffffffffffffffffffff1673ffffffffffffffffffffffffffffffffffffffff163373ffffffffffffffffffffffffffffffffffffffff16141515610f15576040517f08c379a0000000000000000000000000000000000000000000000000000000008152600401610f0c90612255565b60405180910390fd5b6004805480602002602001604051908101604052809291908181526020016000905b82821015610fd457838290600052602060002090600302016060604051908101604052908160008201548152602001600182015481526020016002820160009054906101000a900473ffffffffffffffffffffffffffffffffffffffff1673ffffffffffffffffffffffffffffffffffffffff1673ffffffffffffffffffffffffffffffffffffffff168152505081526020019060010190610f37565b50505050905090565b6000600260003373ffffffffffffffffffffffffffffffffffffffff1673ffffffffffffffffffffffffffffffffffffffff16815260200190815260200160002060040160009054906101000a900460ff16905090565b60008060009054906101000a900460ff16905090565b6060600060019054906101000a900473ffffffffffffffffffffffffffffffffffffffff1673ffffffffffffffffffffffffffffffffffffffff163373ffffffffffffffffffffffffffffffffffffffff161415156110de576040517f08c379a00000000000000000000000000000000000000000000000000000000081526004016110d590612255565b60405180910390fd5b6003805480602002602001604051908101604052809291908181526020016000905b8282101561138a578382906000526020600020906005020160a060405190810160405290816000820160009054906101000a900473ffffffffffffffffffffffffffffffffffffffff1673ffffffffffffffffffffffffffffffffffffffff1673ffffffffffffffffffffffffffffffffffffffff168152602001600182018054600181600116156101000203166002900480601f0160208091040260200160405190810160405280929190818152602001828054600181600116156101000203166002900480156112135780601f106111e857610100808354040283529160200191611213565b820191906000526020600020905b8154815290600101906020018083116111f657829003601f168201915b50505050508152602001600282018054600181600116156101000203166002900480601f0160208091040260200160405190810160405280929190818152602001828054600181600116156101000203166002900480156112b55780601f1061128a576101008083540402835291602001916112b5565b820191906000526020600020905b81548152906001019060200180831161129857829003601f168201915b50505050508152602001600382018054600181600116156101000203166002900480601f0160208091040260200160405190810160405280929190818152602001828054600181600116156101000203166002900480156113575780601f1061132c57610100808354040283529160200191611357565b820191906000526020600020905b81548152906001019060200180831161133a57829003601f168201915b505050505081526020016004820160009054906101000a900460ff16151515158152505081526020019060010190611100565b50505050905090565b60606001805480602002602001604051908101604052809291908181526020016000905b82821015611641578382906000526020600020906005020160a060405190810160405290816000820160009054906101000a900473ffffffffffffffffffffffffffffffffffffffff1673ffffffffffffffffffffffffffffffffffffffff1673ffffffffffffffffffffffffffffffffffffffff168152602001600182018054600181600116156101000203166002900480601f0160208091040260200160405190810160405280929190818152602001828054600181600116156101000203166002900480156114ca5780601f1061149f576101008083540402835291602001916114ca565b820191906000526020600020905b8154815290600101906020018083116114ad57829003601f168201915b50505050508152602001600282018054600181600116156101000203166002900480601f01602080910402602001604051908101604052809291908181526020018280546001816001161561010002031660029004801561156c5780601f106115415761010080835404028352916020019161156c565b820191906000526020600020905b81548152906001019060200180831161154f57829003601f168201915b50505050508152602001600382018054600181600116156101000203166002900480601f01602080910402602001604051908101604052809291908181526020018280546001816001161561010002031660029004801561160e5780601f106115e35761010080835404028352916020019161160e565b820191906000526020600020905b8154815290600101906020018083116115f157829003601f168201915b505050505081526020016004820160009054906101000a900460ff161515151581525050815260200190600101906113b7565b50505050905090565b60606001600281111561165957fe5b6000809054906101000a900460ff16600281111561167357fe5b1415156116b5576040517f08c379a00000000000000000000000000000000000000000000000000000000081526004016116ac906121b5565b60405180910390fd5b3373ffffffffffffffffffffffffffffffffffffffff16600060019054906101000a900473ffffffffffffffffffffffffffffffffffffffff1673ffffffffffffffffffffffffffffffffffffffff1614151515611748576040517f08c379a000000000000000000000000000000000000000000000000000000000815260040161173f906121f5565b60405180910390fd5b600260003373ffffffffffffffffffffffffffffffffffffffff1673ffffffffffffffffffffffffffffffffffffffff16815260200190815260200160002060040160009054906101000a900460ff1615156117d9576040517f08c379a00000000000000000000000000000000000000000000000000000000081526004016117d090612235565b60405180910390fd5b6117e16119e8565b6060604051908101604052806001600480549050018152602001600181526020013373ffffffffffffffffffffffffffffffffffffffff1681525090506001600060159054906101000a900463ffffffff1601600060156101000a81548163ffffffff021916908363ffffffff16021790555060048190806001815401808255809150509060018203906000526020600020906003020160009091929091909150600082015181600001556020820151816001015560408201518160020160006101000a81548173ffffffffffffffffffffffffffffffffffffffff021916908373ffffffffffffffffffffffffffffffffffffffff1602179055505050506040805190810160405280601e81526020017f5469636b657420426f75676874205375636365737366756c6c7920212121000081525091508191505090565b6000809054906101000a900460ff1681565b3373ffffffffffffffffffffffffffffffffffffffff16600060019054906101000a900473ffffffffffffffffffffffffffffffffffffffff1673ffffffffffffffffffffffffffffffffffffffff161415156119c3576040517f08c379a00000000000000000000000000000000000000000000000000000000081526004016119ba90612215565b60405180910390fd5b60026000806101000a81548160ff021916908360028111156119e157fe5b0217905550565b6060604051908101604052806000815260200160008152602001600073ffffffffffffffffffffffffffffffffffffffff1681525090565b828054600181600116156101000203166002900490600052602060002090601f016020900481019282601f10611a595780548555611a96565b82800160010185558215611a9657600052602060002091601f016020900482015b82811115611a95578254825591600101919060010190611a7a565b5b509050611aa39190611b6f565b5090565b60a060405190810160405280600073ffffffffffffffffffffffffffffffffffffffff1681526020016060815260200160608152602001606081526020016000151581525090565b828054600181600116156101000203166002900490600052602060002090601f016020900481019282601f10611b3057805160ff1916838001178555611b5e565b82800160010185558215611b5e579182015b82811115611b5d578251825591602001919060010190611b42565b5b509050611b6b9190611b6f565b5090565b611b9191905b80821115611b8d576000816000905550600101611b75565b5090565b90565b600082601f8301121515611ba757600080fd5b8135611bba611bb5826122a2565b612275565b91508082526020830160208301858383011115611bd657600080fd5b611be18382846123a8565b50505092915050565b6000611bf6823561238c565b905092915050565b600080600060608486031215611c1357600080fd5b600084013567ffffffffffffffff811115611c2d57600080fd5b611c3986828701611b94565b935050602084013567ffffffffffffffff811115611c5657600080fd5b611c6286828701611b94565b925050604084013567ffffffffffffffff811115611c7f57600080fd5b611c8b86828701611b94565b9150509250925092565b600060208284031215611ca757600080fd5b6000611cb584828501611bea565b91505092915050565b611cc78161232e565b82525050565b6000611cd8826122e8565b808452602084019350611cea836122ce565b60005b82811015611d1c57611d00868351611fdc565b611d0982612314565b9150606086019550600181019050611ced565b50849250505092915050565b6000611d33826122f3565b80845260208401935083602082028501611d4c856122db565b60005b84811015611d85578383038852611d6783835161201e565b9250611d7282612321565b9150602088019750600181019050611d4f565b508196508694505050505092915050565b611d9f81612340565b82525050565b611dae81612396565b82525050565b6000611dbf82612309565b808452611dd38160208601602086016123b7565b611ddc816123ea565b602085010191505092915050565b6000611df5826122fe565b808452611e098160208601602086016123b7565b611e12816123ea565b602085010191505092915050565b6000601982527f4c6f7474657279206973206e6f7420796574206f70656e6564000000000000006020830152604082019050919050565b6000603c82527f506c617965722063616e2774207265676973746572207768696c65206c6f747460208301527f657279206861732073746172746564206f722066696e69736865642e000000006040830152606082019050919050565b6000602a82527f4c6f7474657279206f776e65722f6f7267616e697a65722063616e277420627560208301527f79207469636b6574732e000000000000000000000000000000000000000000006040830152606082019050919050565b6000602482527f4f6e6c79206f776e65722063616e206f70656e206c6f74746572792070726f6360208301527f6573732e000000000000000000000000000000000000000000000000000000006040830152606082019050919050565b6000601482527f55736572206e6f7420726567697374657265642e0000000000000000000000006020830152604082019050919050565b6000601782527f4f6e6c79206f776e65722063616e2065786563757465200000000000000000006020830152604082019050919050565b606082016000820151611ff260008501826120a2565b50602082015161200560208501826120a2565b5060408201516120186040850182611cbe565b50505050565b600060a0830160008301516120366000860182611cbe565b506020830151848203602086015261204e8282611dea565b915050604083015184820360408601526120688282611dea565b915050606083015184820360608601526120828282611dea565b91505060808301516120976080860182611d96565b508091505092915050565b6120ab81612382565b82525050565b600060a0820190506120c66000830188611cbe565b81810360208301526120d88187611dea565b905081810360408301526120ec8186611dea565b905081810360608301526121008185611dea565b905061210f6080830184611d96565b9695505050505050565b600060208201905081810360008301526121338184611ccd565b905092915050565b600060208201905081810360008301526121558184611d28565b905092915050565b60006020820190506121726000830184611d96565b92915050565b600060208201905061218d6000830184611da5565b92915050565b600060208201905081810360008301526121ad8184611db4565b905092915050565b600060208201905081810360008301526121ce81611e20565b9050919050565b600060208201905081810360008301526121ee81611e57565b9050919050565b6000602082019050818103600083015261220e81611eb4565b9050919050565b6000602082019050818103600083015261222e81611f11565b9050919050565b6000602082019050818103600083015261224e81611f6e565b9050919050565b6000602082019050818103600083015261226e81611fa5565b9050919050565b6000604051905081810181811067ffffffffffffffff8211171561229857600080fd5b8060405250919050565b600067ffffffffffffffff8211156122b957600080fd5b601f19601f8301169050602081019050919050565b6000602082019050919050565b6000602082019050919050565b600081519050919050565b600081519050919050565b600081519050919050565b600081519050919050565b6000602082019050919050565b6000602082019050919050565b600061233982612362565b9050919050565b60008115159050919050565b600060038210151561235a57fe5b819050919050565b600073ffffffffffffffffffffffffffffffffffffffff82169050919050565b6000819050919050565b6000819050919050565b60006123a18261234c565b9050919050565b82818337600083830152505050565b60005b838110156123d55780820151818401526020810190506123ba565b838111156123e4576000848401525b50505050565b6000601f19601f830116905091905056fea265627a7a72305820cd9c1338a6903e00239a65fd140154426c1d8b9b278e76a1a64f2ba82116fb086c6578706572696d656e74616cf50037",
  "source": "pragma solidity ^0.5.0;\npragma experimental ABIEncoderV2;\n\ncontract Lottery {\n    \n    enum UserType {Issuer,Investor}\n    enum LotteryState {NotStarted, Started,Finished}\n    \n    LotteryState public state;\n    \n    struct Player {\n        address playerAddress;\n        string playerName;\n        string emailId;\n        string phoneNumber;\n        bool isExist;\n    }\n    \n    struct LotteryTicket {\n        uint lotteryId;\n        uint price;\n        address ticketOwner;\n    }\n    \n\n    address private owner;\n    uint32 private totalAmount;\n    Player[] public winner;\n    \n    mapping (address => Player) playerMap;\n    Player[] players;\n    LotteryTicket[] tickets;\n\n    constructor () public {\n        state = LotteryState.NotStarted;\n        owner = msg.sender;\n    }\n\n    function registerPlayer(string memory _name, string memory _emailId, string memory  _phoneNumber) public returns (string memory result) {\n        //Owner shouldn't be player\n        require(owner != msg.sender);\n        require((state != LotteryState.NotStarted) && (state != LotteryState.Finished), \"Player can't register while lottery has started or finished.\");\n        \n        result = \"FAIL !!!\";\n        if(!playerMap[msg.sender].isExist ) {\n            Player memory _player = Player(msg.sender, _name, _emailId, _phoneNumber,true);\n            playerMap[msg.sender] = _player;\n            players.push(_player);\n            result = \"Registered Successfully !!!\";\n        }\n\n        return(result);\n        // new event to be send to owner\n    }\n    \n    function startLottery() public{\n        require (owner == msg.sender, \"Only owner can open lottery process.\");\n        state = LotteryState.Started;\n        \n    }\n\n    function stopLottery() public{\n        require (owner == msg.sender, \"Only owner can open lottery process.\");\n        state = LotteryState.Finished;\n        \n    }\n    \n    function buyLotteryTickets() public returns (string memory result) {\n        require(state == LotteryState.Started, \"Lottery is not yet opened\");\n        require(owner != msg.sender, \"Lottery owner/organizer can't buy tickets.\");\n        require(playerMap[msg.sender].isExist,\"User not registered.\");\n        \n        LotteryTicket memory ticket = LotteryTicket(tickets.length+1,1, msg.sender);\n        totalAmount = totalAmount + 1;\n        tickets.push(ticket);\n        result = \"Ticket Bought Successfully !!!\";\n        return(result);\n        //event to be sendout to owner\n    }\n    \n    function processLotteryWinners() public {\n        require(msg.sender == owner, \"Only owner can execute \");\n        uint32 prizeMoney = totalAmount/2;\n        /*uint32 firstPrizeMoney = prizeMoney * 50/100;\n        uint32 secondPrizeMoney = prizeMoney * 30/100;\n        uint32 thirdPrizeMondy = prizeMoney * 20/100;\n        */\n        //Randomly select the numbers\n        \n        uint randomNumber = uint(keccak256(abi.encodePacked(now,  tickets.length))) % tickets.length;\n        LotteryTicket memory winnerTicket = tickets[randomNumber - 1];\n        \n        winner.push(playerMap[winnerTicket.ticketOwner]);\n        \n        //Send notification\n        \n        state = LotteryState.NotStarted;\n    }\n    \n    function getLotteryState() view public returns (LotteryState _state ) {\n         //require(msg.sender == owner, \"Only owner can execute \");\n         _state = state;\n    }\n\n    function isPlayerRegistered() view public returns (bool _status ) {\n        _status = playerMap[msg.sender].isExist;\n    }\n\n    function getLotteryTickets() view public returns (LotteryTicket[] memory _tickets ) {\n         require(msg.sender == owner, \"Only owner can execute \");\n         return(tickets);\n    }\n    \n    function getPlayers() view public returns (Player[] memory _players ) {\n         require(msg.sender == owner, \"Only owner can execute \");\n         return(players);\n    }\n    \n    function getWinner() view public returns (Player[] memory _players ) {\n        _players = winner;\n    }\n\n    //TODO - Not working \n    function fetchMyTickets() view public returns (LotteryTicket[] memory _tickets ) {\n        uint j = 0;\n        for(uint i=0; i<tickets.length; i++) {\n            if(tickets[i].ticketOwner == msg.sender) {\n                _tickets[j] = tickets[i];\n                j++;\n            }\n        }\n    }\n    \n}",
  "sourcePath": "/Users/nikhilkoul/Documents/Repos/EthereumPlayground/contracts/Lottery.sol",
  "compiler": {
    "name": "solc",
    "version": "0.5.0+commit.1d4f565a.Emscripten.clang"
  },
  "schemaVersion": "3.0.9",
  "updatedAt": "2019-09-05T13:50:05.511Z",
  "devdoc": {
    "methods": {}
  },
  "userdoc": {
    "methods": {}
  }
}