{
  "contractName": "Lottery",
  "abi": [
    {
      "constant": true,
      "inputs": [
        {
          "name": "",
          "type": "uint256"
        }
      ],
      "name": "winner",
      "outputs": [
        {
          "name": "playerAddress",
          "type": "address"
        },
        {
          "name": "playerName",
          "type": "string"
        },
        {
          "name": "emailId",
          "type": "string"
        },
        {
          "name": "phoneNumber",
          "type": "string"
        },
        {
          "name": "isExist",
          "type": "bool"
        }
      ],
      "payable": false,
      "stateMutability": "view",
      "type": "function"
    },
    {
      "constant": true,
      "inputs": [],
      "name": "state",
      "outputs": [
        {
          "name": "",
          "type": "uint8"
        }
      ],
      "payable": false,
      "stateMutability": "view",
      "type": "function"
    },
    {
      "inputs": [],
      "payable": false,
      "stateMutability": "nonpayable",
      "type": "constructor"
    },
    {
      "anonymous": false,
      "inputs": [
        {
          "indexed": false,
          "name": "_address",
          "type": "address"
        }
      ],
      "name": "playerRegistered",
      "type": "event"
    },
    {
      "anonymous": false,
      "inputs": [
        {
          "indexed": false,
          "name": "_status",
          "type": "uint8"
        }
      ],
      "name": "lotteryStatusUpdate",
      "type": "event"
    },
    {
      "anonymous": false,
      "inputs": [
        {
          "indexed": false,
          "name": "_address",
          "type": "address"
        }
      ],
      "name": "ticketSold",
      "type": "event"
    },
    {
      "anonymous": false,
      "inputs": [
        {
          "components": [
            {
              "name": "playerAddress",
              "type": "address"
            },
            {
              "name": "playerName",
              "type": "string"
            },
            {
              "name": "emailId",
              "type": "string"
            },
            {
              "name": "phoneNumber",
              "type": "string"
            },
            {
              "name": "isExist",
              "type": "bool"
            }
          ],
          "indexed": false,
          "name": "_player",
          "type": "tuple"
        },
        {
          "components": [
            {
              "name": "lotteryId",
              "type": "uint256"
            },
            {
              "name": "price",
              "type": "uint256"
            },
            {
              "name": "ticketOwner",
              "type": "address"
            }
          ],
          "indexed": false,
          "name": "_ticket",
          "type": "tuple"
        },
        {
          "indexed": false,
          "name": "_status",
          "type": "uint8"
        },
        {
          "indexed": false,
          "name": "_balance",
          "type": "uint256"
        }
      ],
      "name": "winnerIs",
      "type": "event"
    },
    {
      "constant": false,
      "inputs": [
        {
          "name": "_name",
          "type": "string"
        },
        {
          "name": "_emailId",
          "type": "string"
        },
        {
          "name": "_phoneNumber",
          "type": "string"
        }
      ],
      "name": "registerPlayer",
      "outputs": [
        {
          "name": "result",
          "type": "string"
        }
      ],
      "payable": true,
      "stateMutability": "payable",
      "type": "function"
    },
    {
      "constant": false,
      "inputs": [
        {
          "name": "_ticketPrice",
          "type": "uint32"
        }
      ],
      "name": "startLottery",
      "outputs": [],
      "payable": false,
      "stateMutability": "nonpayable",
      "type": "function"
    },
    {
      "constant": false,
      "inputs": [],
      "name": "stopLottery",
      "outputs": [],
      "payable": false,
      "stateMutability": "nonpayable",
      "type": "function"
    },
    {
      "constant": false,
      "inputs": [
        {
          "name": "_ticketNumbers",
          "type": "uint32"
        }
      ],
      "name": "buyLotteryTickets",
      "outputs": [
        {
          "name": "result",
          "type": "string"
        }
      ],
      "payable": true,
      "stateMutability": "payable",
      "type": "function"
    },
    {
      "constant": false,
      "inputs": [],
      "name": "processLotteryWinners",
      "outputs": [],
      "payable": false,
      "stateMutability": "nonpayable",
      "type": "function"
    },
    {
      "constant": true,
      "inputs": [],
      "name": "getLotteryState",
      "outputs": [
        {
          "name": "_state",
          "type": "uint8"
        }
      ],
      "payable": false,
      "stateMutability": "view",
      "type": "function"
    },
    {
      "constant": true,
      "inputs": [],
      "name": "getTicketPrice",
      "outputs": [
        {
          "name": "_price",
          "type": "uint32"
        }
      ],
      "payable": false,
      "stateMutability": "view",
      "type": "function"
    },
    {
      "constant": true,
      "inputs": [],
      "name": "getPrizeAmount",
      "outputs": [
        {
          "name": "_amount",
          "type": "uint256"
        }
      ],
      "payable": false,
      "stateMutability": "view",
      "type": "function"
    },
    {
      "constant": true,
      "inputs": [],
      "name": "getTotalAmount",
      "outputs": [
        {
          "name": "_price",
          "type": "uint256"
        }
      ],
      "payable": false,
      "stateMutability": "view",
      "type": "function"
    },
    {
      "constant": true,
      "inputs": [],
      "name": "isPlayerRegistered",
      "outputs": [
        {
          "name": "_status",
          "type": "bool"
        }
      ],
      "payable": false,
      "stateMutability": "view",
      "type": "function"
    },
    {
      "constant": true,
      "inputs": [],
      "name": "getLotteryTickets",
      "outputs": [
        {
          "components": [
            {
              "name": "lotteryId",
              "type": "uint256"
            },
            {
              "name": "price",
              "type": "uint256"
            },
            {
              "name": "ticketOwner",
              "type": "address"
            }
          ],
          "name": "_tickets",
          "type": "tuple[]"
        }
      ],
      "payable": false,
      "stateMutability": "view",
      "type": "function"
    },
    {
      "constant": true,
      "inputs": [],
      "name": "getPlayers",
      "outputs": [
        {
          "components": [
            {
              "name": "playerAddress",
              "type": "address"
            },
            {
              "name": "playerName",
              "type": "string"
            },
            {
              "name": "emailId",
              "type": "string"
            },
            {
              "name": "phoneNumber",
              "type": "string"
            },
            {
              "name": "isExist",
              "type": "bool"
            }
          ],
          "name": "_players",
          "type": "tuple[]"
        }
      ],
      "payable": false,
      "stateMutability": "view",
      "type": "function"
    },
    {
      "constant": true,
      "inputs": [],
      "name": "getWinner",
      "outputs": [
        {
          "components": [
            {
              "name": "playerAddress",
              "type": "address"
            },
            {
              "name": "playerName",
              "type": "string"
            },
            {
              "name": "emailId",
              "type": "string"
            },
            {
              "name": "phoneNumber",
              "type": "string"
            },
            {
              "name": "isExist",
              "type": "bool"
            }
          ],
          "name": "_players",
          "type": "tuple[]"
        }
      ],
      "payable": false,
      "stateMutability": "view",
      "type": "function"
    },
    {
      "constant": true,
      "inputs": [],
      "name": "fetchMyTickets",
      "outputs": [
        {
          "components": [
            {
              "name": "lotteryId",
              "type": "uint256"
            },
            {
              "name": "price",
              "type": "uint256"
            },
            {
              "name": "ticketOwner",
              "type": "address"
            }
          ],
          "name": "_mytickets",
          "type": "tuple[]"
        }
      ],
      "payable": false,
      "stateMutability": "view",
      "type": "function"
    },
    {
      "constant": true,
      "inputs": [],
      "name": "getPlayerData",
      "outputs": [
        {
          "components": [
            {
              "name": "playerAddress",
              "type": "address"
            },
            {
              "name": "playerName",
              "type": "string"
            },
            {
              "name": "emailId",
              "type": "string"
            },
            {
              "name": "phoneNumber",
              "type": "string"
            },
            {
              "name": "isExist",
              "type": "bool"
            }
          ],
          "name": "_player",
          "type": "tuple"
        }
      ],
      "payable": false,
      "stateMutability": "view",
      "type": "function"
    }
  ],
  "bytecode": "0x608060405234801561001057600080fd5b5060008060006101000a81548160ff0219169083600281111561002f57fe5b021790555033600060016101000a81548173ffffffffffffffffffffffffffffffffffffffff021916908373ffffffffffffffffffffffffffffffffffffffff160217905550612f80806100846000396000f3fe6080604052600436106100f1576000357c0100000000000000000000000000000000000000000000000000000000900463ffffffff1680631cbeae5e146100f65780631cf1f4ba146101375780632c1f2d90146101625780632c43929e146101795780633229f0e1146101a9578063442db8fb146101d45780634b4739df146101ff57806365ac43411461022a5780636b68c03c1461025557806387bb7ae0146102805780638b5b9ccc146102ab5780638e7ea5b2146102d6578063c19d93fb14610301578063d52908501461032c578063d5c624981461035c578063ecca9c2e14610373578063f52e62741461039e575b600080fd5b34801561010257600080fd5b5061011d600480360361011891908101906123d2565b6103c7565b60405161012e959493929190612aa3565b60405180910390f35b34801561014357600080fd5b5061014c610601565b6040516101599190612ca7565b60405180910390f35b34801561016e57600080fd5b506101776108b0565b005b610193600480360361018e919081019061233b565b610d10565b6040516101a09190612b85565b60405180910390f35b3480156101b557600080fd5b506101be6110da565b6040516101cb9190612b0b565b60405180910390f35b3480156101e057600080fd5b506101e9611274565b6040516101f69190612b0b565b60405180910390f35b34801561020b57600080fd5b506102146113d0565b6040516102219190612b4f565b60405180910390f35b34801561023657600080fd5b5061023f611427565b60405161024c9190612d15565b60405180910390f35b34801561026157600080fd5b5061026a611446565b6040516102779190612b6a565b60405180910390f35b34801561028c57600080fd5b5061029561145c565b6040516102a29190612d30565b60405180910390f35b3480156102b757600080fd5b506102c0611475565b6040516102cd9190612b2d565b60405180910390f35b3480156102e257600080fd5b506102eb6117be565b6040516102f89190612b2d565b60405180910390f35b34801561030d57600080fd5b50610316611a75565b6040516103239190612b6a565b60405180910390f35b610346600480360361034191908101906123fb565b611a87565b6040516103539190612b85565b60405180910390f35b34801561036857600080fd5b50610371611ecc565b005b34801561037f57600080fd5b50610388611fc8565b6040516103959190612d15565b60405180910390f35b3480156103aa57600080fd5b506103c560048036036103c091908101906123fb565b611ff3565b005b6001818154811015156103d657fe5b90600052602060002090600502016000915090508060000160009054906101000a900473ffffffffffffffffffffffffffffffffffffffff1690806001018054600181600116156101000203166002900480601f0160208091040260200160405190810160405280929190818152602001828054600181600116156101000203166002900480156104a85780601f1061047d576101008083540402835291602001916104a8565b820191906000526020600020905b81548152906001019060200180831161048b57829003601f168201915b505050505090806002018054600181600116156101000203166002900480601f0160208091040260200160405190810160405280929190818152602001828054600181600116156101000203166002900480156105465780601f1061051b57610100808354040283529160200191610546565b820191906000526020600020905b81548152906001019060200180831161052957829003601f168201915b505050505090806003018054600181600116156101000203166002900480601f0160208091040260200160405190810160405280929190818152602001828054600181600116156101000203166002900480156105e45780601f106105b9576101008083540402835291602001916105e4565b820191906000526020600020905b8154815290600101906020018083116105c757829003601f168201915b5050505050908060040160009054906101000a900460ff16905085565b610609612111565b600260003373ffffffffffffffffffffffffffffffffffffffff1673ffffffffffffffffffffffffffffffffffffffff16815260200190815260200160002060a060405190810160405290816000820160009054906101000a900473ffffffffffffffffffffffffffffffffffffffff1673ffffffffffffffffffffffffffffffffffffffff1673ffffffffffffffffffffffffffffffffffffffff168152602001600182018054600181600116156101000203166002900480601f0160208091040260200160405190810160405280929190818152602001828054600181600116156101000203166002900480156107435780601f1061071857610100808354040283529160200191610743565b820191906000526020600020905b81548152906001019060200180831161072657829003601f168201915b50505050508152602001600282018054600181600116156101000203166002900480601f0160208091040260200160405190810160405280929190818152602001828054600181600116156101000203166002900480156107e55780601f106107ba576101008083540402835291602001916107e5565b820191906000526020600020905b8154815290600101906020018083116107c857829003601f168201915b50505050508152602001600382018054600181600116156101000203166002900480601f0160208091040260200160405190810160405280929190818152602001828054600181600116156101000203166002900480156108875780601f1061085c57610100808354040283529160200191610887565b820191906000526020600020905b81548152906001019060200180831161086a57829003601f168201915b505050505081526020016004820160009054906101000a900460ff161515151581525050905090565b600060019054906101000a900473ffffffffffffffffffffffffffffffffffffffff1673ffffffffffffffffffffffffffffffffffffffff163373ffffffffffffffffffffffffffffffffffffffff16141515610942576040517f08c379a000000000000000000000000000000000000000000000000000000000815260040161093990612c87565b60405180910390fd5b60006002600060159054906101000a900463ffffffff1663ffffffff1681151561096857fe5b049050600060058054905042600580549050604051602001808381526020018281526020019250505060405160208183030381529060405280519060200120600190048115156109b457fe5b0690506109bf612159565b6005600183038154811015156109d157fe5b90600052602060002090600302016060604051908101604052908160008201548152602001600182015481526020016002820160009054906101000a900473ffffffffffffffffffffffffffffffffffffffff1673ffffffffffffffffffffffffffffffffffffffff1673ffffffffffffffffffffffffffffffffffffffff16815250509050806040015173ffffffffffffffffffffffffffffffffffffffff166108fc60023073ffffffffffffffffffffffffffffffffffffffff1631811515610a9857fe5b049081150290604051600060405180830381858888f19350505050158015610ac4573d6000803e3d6000fd5b50600160026000836040015173ffffffffffffffffffffffffffffffffffffffff1673ffffffffffffffffffffffffffffffffffffffff168152602001908152602001600020908060018154018082558091505090600182039060005260206000209060050201600090919290919091506000820160009054906101000a900473ffffffffffffffffffffffffffffffffffffffff168160000160006101000a81548173ffffffffffffffffffffffffffffffffffffffff021916908373ffffffffffffffffffffffffffffffffffffffff16021790555060018201816001019080546001816001161561010002031660029004610bc3929190612191565b5060028201816002019080546001816001161561010002031660029004610beb929190612191565b5060038201816003019080546001816001161561010002031660029004610c13929190612191565b506004820160009054906101000a900460ff168160040160006101000a81548160ff02191690831515021790555050505060008060006101000a81548160ff02191690836002811115610c6257fe5b02179055507f74bcccf3102023f5525597c4f8376b378723c0213b6c13c2c6a54087c605a0f460026000836040015173ffffffffffffffffffffffffffffffffffffffff1673ffffffffffffffffffffffffffffffffffffffff168152602001908152602001600020826000809054906101000a900460ff163073ffffffffffffffffffffffffffffffffffffffff1631604051610d039493929190612cc9565b60405180910390a1505050565b60603373ffffffffffffffffffffffffffffffffffffffff16600060019054906101000a900473ffffffffffffffffffffffffffffffffffffffff1673ffffffffffffffffffffffffffffffffffffffff1614151515610d6f57600080fd5b60006002811115610d7c57fe5b6000809054906101000a900460ff166002811115610d9657fe5b14158015610dc85750600280811115610dab57fe5b6000809054906101000a900460ff166002811115610dc557fe5b14155b1515610e09576040517f08c379a0000000000000000000000000000000000000000000000000000000008152600401610e0090612bc7565b60405180910390fd5b600260003373ffffffffffffffffffffffffffffffffffffffff1673ffffffffffffffffffffffffffffffffffffffff16815260200190815260200160002060040160009054906101000a900460ff1615156110d357610e67612111565b60a0604051908101604052803373ffffffffffffffffffffffffffffffffffffffff16815260200186815260200185815260200184815260200160011515815250905080600260003373ffffffffffffffffffffffffffffffffffffffff1673ffffffffffffffffffffffffffffffffffffffff16815260200190815260200160002060008201518160000160006101000a81548173ffffffffffffffffffffffffffffffffffffffff021916908373ffffffffffffffffffffffffffffffffffffffff1602179055506020820151816001019080519060200190610f4d929190612218565b506040820151816002019080519060200190610f6a929190612218565b506060820151816003019080519060200190610f87929190612218565b5060808201518160040160006101000a81548160ff0219169083151502179055509050506004819080600181540180825580915050906001820390600052602060002090600502016000909192909190915060008201518160000160006101000a81548173ffffffffffffffffffffffffffffffffffffffff021916908373ffffffffffffffffffffffffffffffffffffffff160217905550602082015181600101908051906020019061103c929190612218565b506040820151816002019080519060200190611059929190612218565b506060820151816003019080519060200190611076929190612218565b5060808201518160040160006101000a81548160ff0219169083151502179055505050507f9b66d49082843aa418cd502edc3b870cda1cef5aa3c1e289ca61475532afd356336040516110c99190612a88565b60405180910390a1505b9392505050565b6060600060019054906101000a900473ffffffffffffffffffffffffffffffffffffffff1673ffffffffffffffffffffffffffffffffffffffff163373ffffffffffffffffffffffffffffffffffffffff161415151561116f576040517f08c379a000000000000000000000000000000000000000000000000000000000815260040161116690612c07565b60405180910390fd5b600360003373ffffffffffffffffffffffffffffffffffffffff1673ffffffffffffffffffffffffffffffffffffffff168152602001908152602001600020805480602002602001604051908101604052809291908181526020016000905b8282101561126b57838290600052602060002090600302016060604051908101604052908160008201548152602001600182015481526020016002820160009054906101000a900473ffffffffffffffffffffffffffffffffffffffff1673ffffffffffffffffffffffffffffffffffffffff1673ffffffffffffffffffffffffffffffffffffffff1681525050815260200190600101906111ce565b50505050905090565b6060600060019054906101000a900473ffffffffffffffffffffffffffffffffffffffff1673ffffffffffffffffffffffffffffffffffffffff163373ffffffffffffffffffffffffffffffffffffffff16141515611308576040517f08c379a00000000000000000000000000000000000000000000000000000000081526004016112ff90612c87565b60405180910390fd5b6005805480602002602001604051908101604052809291908181526020016000905b828210156113c757838290600052602060002090600302016060604051908101604052908160008201548152602001600182015481526020016002820160009054906101000a900473ffffffffffffffffffffffffffffffffffffffff1673ffffffffffffffffffffffffffffffffffffffff1673ffffffffffffffffffffffffffffffffffffffff16815250508152602001906001019061132a565b50505050905090565b6000600260003373ffffffffffffffffffffffffffffffffffffffff1673ffffffffffffffffffffffffffffffffffffffff16815260200190815260200160002060040160009054906101000a900460ff16905090565b60003073ffffffffffffffffffffffffffffffffffffffff1631905090565b60008060009054906101000a900460ff16905090565b60008060199054906101000a900463ffffffff16905090565b6060600060019054906101000a900473ffffffffffffffffffffffffffffffffffffffff1673ffffffffffffffffffffffffffffffffffffffff163373ffffffffffffffffffffffffffffffffffffffff16141515611509576040517f08c379a000000000000000000000000000000000000000000000000000000000815260040161150090612c87565b60405180910390fd5b6004805480602002602001604051908101604052809291908181526020016000905b828210156117b5578382906000526020600020906005020160a060405190810160405290816000820160009054906101000a900473ffffffffffffffffffffffffffffffffffffffff1673ffffffffffffffffffffffffffffffffffffffff1673ffffffffffffffffffffffffffffffffffffffff168152602001600182018054600181600116156101000203166002900480601f01602080910402602001604051908101604052809291908181526020018280546001816001161561010002031660029004801561163e5780601f106116135761010080835404028352916020019161163e565b820191906000526020600020905b81548152906001019060200180831161162157829003601f168201915b50505050508152602001600282018054600181600116156101000203166002900480601f0160208091040260200160405190810160405280929190818152602001828054600181600116156101000203166002900480156116e05780601f106116b5576101008083540402835291602001916116e0565b820191906000526020600020905b8154815290600101906020018083116116c357829003601f168201915b50505050508152602001600382018054600181600116156101000203166002900480601f0160208091040260200160405190810160405280929190818152602001828054600181600116156101000203166002900480156117825780601f1061175757610100808354040283529160200191611782565b820191906000526020600020905b81548152906001019060200180831161176557829003601f168201915b505050505081526020016004820160009054906101000a900460ff1615151515815250508152602001906001019061152b565b50505050905090565b60606001805480602002602001604051908101604052809291908181526020016000905b82821015611a6c578382906000526020600020906005020160a060405190810160405290816000820160009054906101000a900473ffffffffffffffffffffffffffffffffffffffff1673ffffffffffffffffffffffffffffffffffffffff1673ffffffffffffffffffffffffffffffffffffffff168152602001600182018054600181600116156101000203166002900480601f0160208091040260200160405190810160405280929190818152602001828054600181600116156101000203166002900480156118f55780601f106118ca576101008083540402835291602001916118f5565b820191906000526020600020905b8154815290600101906020018083116118d857829003601f168201915b50505050508152602001600282018054600181600116156101000203166002900480601f0160208091040260200160405190810160405280929190818152602001828054600181600116156101000203166002900480156119975780601f1061196c57610100808354040283529160200191611997565b820191906000526020600020905b81548152906001019060200180831161197a57829003601f168201915b50505050508152602001600382018054600181600116156101000203166002900480601f016020809104026020016040519081016040528092919081815260200182805460018160011615610100020316600290048015611a395780601f10611a0e57610100808354040283529160200191611a39565b820191906000526020600020905b815481529060010190602001808311611a1c57829003601f168201915b505050505081526020016004820160009054906101000a900460ff161515151581525050815260200190600101906117e2565b50505050905090565b6000809054906101000a900460ff1681565b6060600060199054906101000a900463ffffffff16820263ffffffff163410151515611ae8576040517f08c379a0000000000000000000000000000000000000000000000000000000008152600401611adf90612be7565b60405180910390fd5b60016002811115611af557fe5b6000809054906101000a900460ff166002811115611b0f57fe5b141515611b51576040517f08c379a0000000000000000000000000000000000000000000000000000000008152600401611b4890612ba7565b60405180910390fd5b3373ffffffffffffffffffffffffffffffffffffffff16600060019054906101000a900473ffffffffffffffffffffffffffffffffffffffff1673ffffffffffffffffffffffffffffffffffffffff1614151515611be4576040517f08c379a0000000000000000000000000000000000000000000000000000000008152600401611bdb90612c27565b60405180910390fd5b600260003373ffffffffffffffffffffffffffffffffffffffff1673ffffffffffffffffffffffffffffffffffffffff16815260200190815260200160002060040160009054906101000a900460ff161515611c75576040517f08c379a0000000000000000000000000000000000000000000000000000000008152600401611c6c90612c67565b60405180910390fd5b60008090505b8263ffffffff16811015611e8f57611c91612159565b6060604051908101604052806001600580549050018152602001600060199054906101000a900463ffffffff1663ffffffff1681526020013373ffffffffffffffffffffffffffffffffffffffff168152509050600060199054906101000a900463ffffffff16600060159054906101000a900463ffffffff1601600060156101000a81548163ffffffff021916908363ffffffff16021790555060058190806001815401808255809150509060018203906000526020600020906003020160009091929091909150600082015181600001556020820151816001015560408201518160020160006101000a81548173ffffffffffffffffffffffffffffffffffffffff021916908373ffffffffffffffffffffffffffffffffffffffff160217905550505050600360003373ffffffffffffffffffffffffffffffffffffffff1673ffffffffffffffffffffffffffffffffffffffff1681526020019081526020016000208190806001815401808255809150509060018203906000526020600020906003020160009091929091909150600082015181600001556020820151816001015560408201518160020160006101000a81548173ffffffffffffffffffffffffffffffffffffffff021916908373ffffffffffffffffffffffffffffffffffffffff160217905550505050508080600101915050611c7b565b507f10d07b8a339b9139193aaf4d516e03d6227953b1e7eb0531b596ba3af0d5d04333604051611ebf9190612a88565b60405180910390a1919050565b3373ffffffffffffffffffffffffffffffffffffffff16600060019054906101000a900473ffffffffffffffffffffffffffffffffffffffff1673ffffffffffffffffffffffffffffffffffffffff16141515611f5e576040517f08c379a0000000000000000000000000000000000000000000000000000000008152600401611f5590612c47565b60405180910390fd5b60026000806101000a81548160ff02191690836002811115611f7c57fe5b02179055507f85f44474803be5c356674fd40de0e9ae9e89cbc762b68b62b8373698a0c0b4996000809054906101000a900460ff16604051611fbe9190612b6a565b60405180910390a1565b600060023073ffffffffffffffffffffffffffffffffffffffff1631811515611fed57fe5b04905090565b3373ffffffffffffffffffffffffffffffffffffffff16600060019054906101000a900473ffffffffffffffffffffffffffffffffffffffff1673ffffffffffffffffffffffffffffffffffffffff16141515612085576040517f08c379a000000000000000000000000000000000000000000000000000000000815260040161207c90612c47565b60405180910390fd5b60016000806101000a81548160ff021916908360028111156120a357fe5b021790555080600060196101000a81548163ffffffff021916908363ffffffff1602179055507f85f44474803be5c356674fd40de0e9ae9e89cbc762b68b62b8373698a0c0b4996000809054906101000a900460ff166040516121069190612b6a565b60405180910390a150565b60a060405190810160405280600073ffffffffffffffffffffffffffffffffffffffff1681526020016060815260200160608152602001606081526020016000151581525090565b6060604051908101604052806000815260200160008152602001600073ffffffffffffffffffffffffffffffffffffffff1681525090565b828054600181600116156101000203166002900490600052602060002090601f016020900481019282601f106121ca5780548555612207565b8280016001018555821561220757600052602060002091601f016020900482015b828111156122065782548255916001019190600101906121eb565b5b5090506122149190612298565b5090565b828054600181600116156101000203166002900490600052602060002090601f016020900481019282601f1061225957805160ff1916838001178555612287565b82800160010185558215612287579182015b8281111561228657825182559160200191906001019061226b565b5b5090506122949190612298565b5090565b6122ba91905b808211156122b657600081600090555060010161229e565b5090565b90565b600082601f83011215156122d057600080fd5b81356122e36122de82612d78565b612d4b565b915080825260208301602083018583830111156122ff57600080fd5b61230a838284612ee6565b50505092915050565b600061231f8235612e84565b905092915050565b60006123338235612e8e565b905092915050565b60008060006060848603121561235057600080fd5b600084013567ffffffffffffffff81111561236a57600080fd5b612376868287016122bd565b935050602084013567ffffffffffffffff81111561239357600080fd5b61239f868287016122bd565b925050604084013567ffffffffffffffff8111156123bc57600080fd5b6123c8868287016122bd565b9150509250925092565b6000602082840312156123e457600080fd5b60006123f284828501612313565b91505092915050565b60006020828403121561240d57600080fd5b600061241b84828501612327565b91505092915050565b61242d81612e9e565b82525050565b61243c81612e16565b82525050565b600061244d82612dd0565b80845260208401935061245f83612da4565b60005b8281101561249157612475868351612887565b61247e82612dfc565b9150606086019550600181019050612462565b50849250505092915050565b60006124a882612ddb565b808452602084019350836020820285016124c185612db1565b60005b848110156124fa5783830388526124dc83835161294d565b92506124e782612e09565b91506020880197506001810190506124c4565b508196508694505050505092915050565b61251481612e28565b82525050565b61252381612eb0565b82525050565b600061253482612df1565b808452612548816020860160208601612ef5565b61255181612f28565b602085010191505092915050565b600061256a82612de6565b80845261257e816020860160208601612ef5565b61258781612f28565b602085010191505092915050565b6000815460018116600081146125b257600181146125d257612613565b607f600283041680865260ff198316602087015260408601935050612613565b600282048086526020860195506125e885612dbe565b60005b8281101561260a578154818901526001820191506020810190506125eb565b80880195505050505b505092915050565b6000601982527f4c6f7474657279206973206e6f7420796574206f70656e6564000000000000006020830152604082019050919050565b6000603c82527f506c617965722063616e2774207265676973746572207768696c65206c6f747460208301527f657279206861732073746172746564206f722066696e69736865642e000000006040830152606082019050919050565b6000601582527f496e73756666696369656e742062616c616e63652e00000000000000000000006020830152604082019050919050565b6000601982527f4f776e65722063616e27742068617665207469636b65747320000000000000006020830152604082019050919050565b6000602a82527f4c6f7474657279206f776e65722f6f7267616e697a65722063616e277420627560208301527f79207469636b6574732e000000000000000000000000000000000000000000006040830152606082019050919050565b6000602482527f4f6e6c79206f776e65722063616e206f70656e206c6f74746572792070726f6360208301527f6573732e000000000000000000000000000000000000000000000000000000006040830152606082019050919050565b6000601482527f55736572206e6f7420726567697374657265642e0000000000000000000000006020830152604082019050919050565b6000601782527f4f6e6c79206f776e65722063616e2065786563757465200000000000000000006020830152604082019050919050565b60608201600082015161285b6000850182612a6a565b50602082015161286e6020850182612a6a565b5060408201516128816040850182612433565b50505050565b60608201600082015161289d6000850182612a6a565b5060208201516128b06020850182612a6a565b5060408201516128c36040850182612433565b50505050565b600060a0830160008301516128e16000860182612433565b50602083015184820360208601526128f9828261255f565b91505060408301518482036040860152612913828261255f565b9150506060830151848203606086015261292d828261255f565b9150506080830151612942608086018261250b565b508091505092915050565b600060a0830160008301516129656000860182612433565b506020830151848203602086015261297d828261255f565b91505060408301518482036040860152612997828261255f565b915050606083015184820360608601526129b1828261255f565b91505060808301516129c6608086018261250b565b508091505092915050565b600060a0830160008084015490506129e881612f39565b6129f56000870182612433565b50600184018583036020870152612a0c8382612595565b925050600284018583036040870152612a258382612595565b925050600384018583036060870152612a3e8382612595565b92505060048401549050612a5181612f39565b612a5e608087018261250b565b50819250505092915050565b612a7381612e6a565b82525050565b612a8281612e74565b82525050565b6000602082019050612a9d6000830184612424565b92915050565b600060a082019050612ab86000830188612433565b8181036020830152612aca818761255f565b90508181036040830152612ade818661255f565b90508181036060830152612af2818561255f565b9050612b01608083018461250b565b9695505050505050565b60006020820190508181036000830152612b258184612442565b905092915050565b60006020820190508181036000830152612b47818461249d565b905092915050565b6000602082019050612b64600083018461250b565b92915050565b6000602082019050612b7f600083018461251a565b92915050565b60006020820190508181036000830152612b9f8184612529565b905092915050565b60006020820190508181036000830152612bc08161261b565b9050919050565b60006020820190508181036000830152612be081612652565b9050919050565b60006020820190508181036000830152612c00816126af565b9050919050565b60006020820190508181036000830152612c20816126e6565b9050919050565b60006020820190508181036000830152612c408161271d565b9050919050565b60006020820190508181036000830152612c608161277a565b9050919050565b60006020820190508181036000830152612c80816127d7565b9050919050565b60006020820190508181036000830152612ca08161280e565b9050919050565b60006020820190508181036000830152612cc181846128c9565b905092915050565b600060c0820190508181036000830152612ce381876129d1565b9050612cf26020830186612845565b612cff608083018561251a565b612d0c60a0830184612a6a565b95945050505050565b6000602082019050612d2a6000830184612a6a565b92915050565b6000602082019050612d456000830184612a79565b92915050565b6000604051905081810181811067ffffffffffffffff82111715612d6e57600080fd5b8060405250919050565b600067ffffffffffffffff821115612d8f57600080fd5b601f19601f8301169050602081019050919050565b6000602082019050919050565b6000602082019050919050565b60008160005260206000209050919050565b600081519050919050565b600081519050919050565b600081519050919050565b600081519050919050565b6000602082019050919050565b6000602082019050919050565b6000612e2182612e4a565b9050919050565b60008115159050919050565b6000600382101515612e4257fe5b819050919050565b600073ffffffffffffffffffffffffffffffffffffffff82169050919050565b6000819050919050565b600063ffffffff82169050919050565b6000819050919050565b600063ffffffff82169050919050565b6000612ea982612ec2565b9050919050565b6000612ebb82612e34565b9050919050565b6000612ecd82612ed4565b9050919050565b6000612edf82612e4a565b9050919050565b82818337600083830152505050565b60005b83811015612f13578082015181840152602081019050612ef8565b83811115612f22576000848401525b50505050565b6000601f19601f8301169050919050565b600060018204905091905056fea265627a7a72305820c6996559c23a6d0d2dca17360df3e2446582693ed23c99eb7fd116a54b64059d6c6578706572696d656e74616cf50037",
  "source": "pragma solidity ^0.5.0;\npragma experimental ABIEncoderV2;\n\ncontract Lottery {\n    \n    enum UserType {Issuer,Investor}\n    enum LotteryState {NotStarted, Started,Finished}\n    \n    LotteryState public state;\n    \n    struct Player {\n        address payable playerAddress;\n        string playerName;\n        string emailId;\n        string phoneNumber;\n        bool isExist;\n    }\n    \n    struct LotteryTicket {\n        uint lotteryId;\n        uint price;\n        address payable ticketOwner;\n    }\n    \n\n    address private owner;\n    uint32 private totalAmount;\n    uint32 private ticketPrice;\n    Player[] public winner;\n    \n    mapping (address => Player) playerMap;\n    mapping(address => LotteryTicket[]) playerLotteryTicketsMapping;\n\n    Player[] players;\n    LotteryTicket[] tickets;\n\n    constructor () public {\n        state = LotteryState.NotStarted;\n        owner = msg.sender;\n    }\n\n    //----------- EVENTS-----------\n    event playerRegistered(\n        address _address\n    );\n\n    event lotteryStatusUpdate(\n        LotteryState _status\n    );\n\n    event ticketSold(\n        address _address\n    );\n\n    event winnerIs(\n        Player _player,\n        LotteryTicket _ticket,\n        LotteryState _status,\n        uint256 _balance\n    );\n    //----------- EVENTS-----------\n\n    function registerPlayer(string memory _name, string memory _emailId, string memory  _phoneNumber) public payable returns (string memory result) {\n        //Owner shouldn't be player\n        require(owner != msg.sender);\n        require((state != LotteryState.NotStarted) && (state != LotteryState.Finished), \"Player can't register while lottery has started or finished.\");\n        \n        if(!playerMap[msg.sender].isExist ) {\n            Player memory _player = Player(msg.sender, _name, _emailId, _phoneNumber, true);\n            playerMap[msg.sender] = _player;\n            players.push(_player);\n            // Event to Manager\n            emit playerRegistered(msg.sender);\n        }\n    }\n    \n    function startLottery(uint32 _ticketPrice) public{\n        require (owner == msg.sender, \"Only owner can open lottery process.\");\n        state = LotteryState.Started;\n        ticketPrice = _ticketPrice;\n        // Event to All Players\n        emit lotteryStatusUpdate(state);\n    }\n\n    function stopLottery() public{\n        require (owner == msg.sender, \"Only owner can open lottery process.\");\n        state = LotteryState.Finished;\n        // Event to All Players\n        emit lotteryStatusUpdate(state);\n    }\n    \n    function buyLotteryTickets(uint32 _ticketNumbers) public payable returns (string memory result) {\n        require(msg.value >= (_ticketNumbers*ticketPrice), \"Insufficient balance.\");\n        require(state == LotteryState.Started, \"Lottery is not yet opened\");\n        require(owner != msg.sender, \"Lottery owner/organizer can't buy tickets.\");\n        require(playerMap[msg.sender].isExist,\"User not registered.\");\n        \n        for(uint i=0; i<_ticketNumbers; i++) {\n           LotteryTicket memory ticket = LotteryTicket(tickets.length+1,ticketPrice, msg.sender);\n            totalAmount = totalAmount + ticketPrice;\n            tickets.push(ticket);\n            playerLotteryTicketsMapping[msg.sender].push(ticket);\n        }\n        // Event to Manager\n        emit ticketSold(msg.sender);\n    }\n    \n    function processLotteryWinners() public {\n        require(msg.sender == owner, \"Only owner can execute \");\n        uint32 prizeMoney = totalAmount/2;\n        /*uint32 firstPrizeMoney = prizeMoney * 50/100;\n        uint32 secondPrizeMoney = prizeMoney * 30/100;\n        uint32 thirdPrizeMondy = prizeMoney * 20/100;\n        */\n        //Randomly select the numbers\n        \n        uint randomNumber = uint(keccak256(abi.encodePacked(now,  tickets.length))) % tickets.length;\n        LotteryTicket memory winnerTicket = tickets[randomNumber - 1];\n        winnerTicket.ticketOwner.transfer(address(this).balance/2);\n        winner.push(playerMap[winnerTicket.ticketOwner]);\n        \n        //Send notification\n        \n        state = LotteryState.NotStarted;\n\n        // Event to Everyone\n        emit winnerIs(playerMap[winnerTicket.ticketOwner], winnerTicket, state, address(this).balance);\n    }\n    \n    function getLotteryState() view public returns (LotteryState _state ) {\n         //require(msg.sender == owner, \"Only owner can execute \");\n         _state = state;\n    }\n\n    function getTicketPrice() view public returns (uint32 _price ) {\n         //require(msg.sender == owner, \"Only owner can execute \");\n         _price = ticketPrice;\n    }\n\n    function getPrizeAmount() view public returns(uint _amount) {\n        return (address(this).balance/2);\n    }\n\n    function getTotalAmount() view public returns (uint256 _price ) {\n         //require(msg.sender == owner, \"Only owner can execute \");\n         _price = address(this).balance;\n    }\n\n    function isPlayerRegistered() view public returns (bool _status ) {\n        _status = playerMap[msg.sender].isExist;\n    }\n\n    function getLotteryTickets() view public returns (LotteryTicket[] memory _tickets ) {\n         require(msg.sender == owner, \"Only owner can execute \");\n         _tickets = tickets;\n    }\n    \n    function getPlayers() view public returns (Player[] memory _players ) {\n         require(msg.sender == owner, \"Only owner can execute \");\n         _players = players;\n    }\n    \n    function getWinner() view public returns (Player[] memory _players ) {\n        _players = winner;\n    }\n\n    function fetchMyTickets() view public returns (LotteryTicket[] memory _mytickets ) {\n        require(msg.sender != owner, \"Owner can't have tickets \");\n       _mytickets = playerLotteryTicketsMapping[msg.sender];\n    }\n\n    function getPlayerData() view public returns (Player memory _player ) {\n       _player = playerMap[msg.sender];\n    }\n}\n",
  "sourcePath": "/Users/nikhilkoul/Documents/Repos/EthereumPlayground/contracts/Lottery.sol",
  "compiler": {
    "name": "solc",
    "version": "0.5.0+commit.1d4f565a.Emscripten.clang"
  },
  "schemaVersion": "3.0.9",
  "updatedAt": "2019-09-27T15:19:18.608Z",
  "devdoc": {
    "methods": {}
  },
  "userdoc": {
    "methods": {}
  }
}