{
  "contractName": "Lottery",
  "abi": [
    {
      "constant": true,
      "inputs": [
        {
          "name": "",
          "type": "uint256"
        }
      ],
      "name": "winner",
      "outputs": [
        {
          "name": "playerAddress",
          "type": "address"
        },
        {
          "name": "playerName",
          "type": "string"
        },
        {
          "name": "emailId",
          "type": "string"
        },
        {
          "name": "phoneNumber",
          "type": "string"
        },
        {
          "name": "isExist",
          "type": "bool"
        }
      ],
      "payable": false,
      "stateMutability": "view",
      "type": "function"
    },
    {
      "constant": true,
      "inputs": [],
      "name": "state",
      "outputs": [
        {
          "name": "",
          "type": "uint8"
        }
      ],
      "payable": false,
      "stateMutability": "view",
      "type": "function"
    },
    {
      "inputs": [],
      "payable": false,
      "stateMutability": "nonpayable",
      "type": "constructor"
    },
    {
      "constant": false,
      "inputs": [
        {
          "name": "_name",
          "type": "string"
        },
        {
          "name": "_emailId",
          "type": "string"
        },
        {
          "name": "_phoneNumber",
          "type": "string"
        }
      ],
      "name": "registerPlayer",
      "outputs": [
        {
          "name": "result",
          "type": "string"
        }
      ],
      "payable": true,
      "stateMutability": "payable",
      "type": "function"
    },
    {
      "constant": false,
      "inputs": [
        {
          "name": "_ticketPrice",
          "type": "uint32"
        }
      ],
      "name": "startLottery",
      "outputs": [],
      "payable": false,
      "stateMutability": "nonpayable",
      "type": "function"
    },
    {
      "constant": false,
      "inputs": [],
      "name": "stopLottery",
      "outputs": [],
      "payable": false,
      "stateMutability": "nonpayable",
      "type": "function"
    },
    {
      "constant": false,
      "inputs": [
        {
          "name": "_ticketNumbers",
          "type": "uint32"
        }
      ],
      "name": "buyLotteryTickets",
      "outputs": [
        {
          "name": "result",
          "type": "string"
        }
      ],
      "payable": true,
      "stateMutability": "payable",
      "type": "function"
    },
    {
      "constant": false,
      "inputs": [],
      "name": "processLotteryWinners",
      "outputs": [],
      "payable": false,
      "stateMutability": "nonpayable",
      "type": "function"
    },
    {
      "constant": true,
      "inputs": [],
      "name": "getLotteryState",
      "outputs": [
        {
          "name": "_state",
          "type": "uint8"
        }
      ],
      "payable": false,
      "stateMutability": "view",
      "type": "function"
    },
    {
      "constant": true,
      "inputs": [],
      "name": "isPlayerRegistered",
      "outputs": [
        {
          "name": "_status",
          "type": "bool"
        }
      ],
      "payable": false,
      "stateMutability": "view",
      "type": "function"
    },
    {
      "constant": true,
      "inputs": [],
      "name": "getLotteryTickets",
      "outputs": [
        {
          "components": [
            {
              "name": "lotteryId",
              "type": "uint256"
            },
            {
              "name": "price",
              "type": "uint256"
            },
            {
              "name": "ticketOwner",
              "type": "address"
            }
          ],
          "name": "_tickets",
          "type": "tuple[]"
        }
      ],
      "payable": false,
      "stateMutability": "view",
      "type": "function"
    },
    {
      "constant": true,
      "inputs": [],
      "name": "getPlayers",
      "outputs": [
        {
          "components": [
            {
              "name": "playerAddress",
              "type": "address"
            },
            {
              "name": "playerName",
              "type": "string"
            },
            {
              "name": "emailId",
              "type": "string"
            },
            {
              "name": "phoneNumber",
              "type": "string"
            },
            {
              "name": "isExist",
              "type": "bool"
            }
          ],
          "name": "_players",
          "type": "tuple[]"
        }
      ],
      "payable": false,
      "stateMutability": "view",
      "type": "function"
    },
    {
      "constant": true,
      "inputs": [],
      "name": "getWinner",
      "outputs": [
        {
          "components": [
            {
              "name": "playerAddress",
              "type": "address"
            },
            {
              "name": "playerName",
              "type": "string"
            },
            {
              "name": "emailId",
              "type": "string"
            },
            {
              "name": "phoneNumber",
              "type": "string"
            },
            {
              "name": "isExist",
              "type": "bool"
            }
          ],
          "name": "_players",
          "type": "tuple[]"
        }
      ],
      "payable": false,
      "stateMutability": "view",
      "type": "function"
    },
    {
      "constant": true,
      "inputs": [],
      "name": "fetchMyTickets",
      "outputs": [
        {
          "components": [
            {
              "name": "lotteryId",
              "type": "uint256"
            },
            {
              "name": "price",
              "type": "uint256"
            },
            {
              "name": "ticketOwner",
              "type": "address"
            }
          ],
          "name": "_mytickets",
          "type": "tuple[]"
        }
      ],
      "payable": false,
      "stateMutability": "view",
      "type": "function"
    }
  ],
  "bytecode": "0x608060405234801561001057600080fd5b5060008060006101000a81548160ff0219169083600281111561002f57fe5b021790555033600060016101000a81548173ffffffffffffffffffffffffffffffffffffffff021916908373ffffffffffffffffffffffffffffffffffffffff1602179055506126a4806100846000396000f3fe6080604052600436106100c5576000357c0100000000000000000000000000000000000000000000000000000000900463ffffffff1680631cbeae5e146100ca5780632c1f2d901461010b5780632c43929e146101225780633229f0e114610152578063442db8fb1461017d5780634b4739df146101a85780636b68c03c146101d35780638b5b9ccc146101fe5780638e7ea5b214610229578063c19d93fb14610254578063d52908501461027f578063d5c62498146102af578063f52e6274146102c6575b600080fd5b3480156100d657600080fd5b506100f160048036036100ec9190810190611ecb565b6102ef565b604051610102959493929190612310565b60405180910390f35b34801561011757600080fd5b50610120610529565b005b61013c60048036036101379190810190611e34565b6108d9565b60405161014991906123f2565b60405180910390f35b34801561015e57600080fd5b50610167610cdf565b6040516101749190612378565b60405180910390f35b34801561018957600080fd5b50610192610f1d565b60405161019f9190612378565b60405180910390f35b3480156101b457600080fd5b506101bd611079565b6040516101ca91906123bc565b60405180910390f35b3480156101df57600080fd5b506101e86110d0565b6040516101f591906123d7565b60405180910390f35b34801561020a57600080fd5b506102136110e6565b604051610220919061239a565b60405180910390f35b34801561023557600080fd5b5061023e61142f565b60405161024b919061239a565b60405180910390f35b34801561026057600080fd5b506102696116e6565b60405161027691906123d7565b60405180910390f35b61029960048036036102949190810190611ef4565b6116f8565b6040516102a691906123f2565b60405180910390f35b3480156102bb57600080fd5b506102c4611a42565b005b3480156102d257600080fd5b506102ed60048036036102e89190810190611ef4565b611af9565b005b6001818154811015156102fe57fe5b90600052602060002090600502016000915090508060000160009054906101000a900473ffffffffffffffffffffffffffffffffffffffff1690806001018054600181600116156101000203166002900480601f0160208091040260200160405190810160405280929190818152602001828054600181600116156101000203166002900480156103d05780601f106103a5576101008083540402835291602001916103d0565b820191906000526020600020905b8154815290600101906020018083116103b357829003601f168201915b505050505090806002018054600181600116156101000203166002900480601f01602080910402602001604051908101604052809291908181526020018280546001816001161561010002031660029004801561046e5780601f106104435761010080835404028352916020019161046e565b820191906000526020600020905b81548152906001019060200180831161045157829003601f168201915b505050505090806003018054600181600116156101000203166002900480601f01602080910402602001604051908101604052809291908181526020018280546001816001161561010002031660029004801561050c5780601f106104e15761010080835404028352916020019161050c565b820191906000526020600020905b8154815290600101906020018083116104ef57829003601f168201915b5050505050908060040160009054906101000a900460ff16905085565b600060019054906101000a900473ffffffffffffffffffffffffffffffffffffffff1673ffffffffffffffffffffffffffffffffffffffff163373ffffffffffffffffffffffffffffffffffffffff161415156105bb576040517f08c379a00000000000000000000000000000000000000000000000000000000081526004016105b2906124b4565b60405180910390fd5b60006002600060159054906101000a900463ffffffff1663ffffffff168115156105e157fe5b0490506000600480549050426004805490506040516020018083815260200182815260200192505050604051602081830303815290604052805190602001206001900481151561062d57fe5b069050610638611bd2565b60046001830381548110151561064a57fe5b90600052602060002090600302016060604051908101604052908160008201548152602001600182015481526020016002820160009054906101000a900473ffffffffffffffffffffffffffffffffffffffff1673ffffffffffffffffffffffffffffffffffffffff1673ffffffffffffffffffffffffffffffffffffffff16815250509050806040015173ffffffffffffffffffffffffffffffffffffffff166108fc3073ffffffffffffffffffffffffffffffffffffffff16319081150290604051600060405180830381858888f19350505050158015610731573d6000803e3d6000fd5b50600160026000836040015173ffffffffffffffffffffffffffffffffffffffff1673ffffffffffffffffffffffffffffffffffffffff168152602001908152602001600020908060018154018082558091505090600182039060005260206000209060050201600090919290919091506000820160009054906101000a900473ffffffffffffffffffffffffffffffffffffffff168160000160006101000a81548173ffffffffffffffffffffffffffffffffffffffff021916908373ffffffffffffffffffffffffffffffffffffffff16021790555060018201816001019080546001816001161561010002031660029004610830929190611c0a565b5060028201816002019080546001816001161561010002031660029004610858929190611c0a565b5060038201816003019080546001816001161561010002031660029004610880929190611c0a565b506004820160009054906101000a900460ff168160040160006101000a81548160ff02191690831515021790555050505060008060006101000a81548160ff021916908360028111156108cf57fe5b0217905550505050565b60603373ffffffffffffffffffffffffffffffffffffffff16600060019054906101000a900473ffffffffffffffffffffffffffffffffffffffff1673ffffffffffffffffffffffffffffffffffffffff161415151561093857600080fd5b6000600281111561094557fe5b6000809054906101000a900460ff16600281111561095f57fe5b14158015610991575060028081111561097457fe5b6000809054906101000a900460ff16600281111561098e57fe5b14155b15156109d2576040517f08c379a00000000000000000000000000000000000000000000000000000000081526004016109c990612434565b60405180910390fd5b6040805190810160405280600881526020017f4641494c202121210000000000000000000000000000000000000000000000008152509050600260003373ffffffffffffffffffffffffffffffffffffffff1673ffffffffffffffffffffffffffffffffffffffff16815260200190815260200160002060040160009054906101000a900460ff161515610cd557610a68611c91565b60a0604051908101604052803373ffffffffffffffffffffffffffffffffffffffff16815260200186815260200185815260200184815260200160011515815250905080600260003373ffffffffffffffffffffffffffffffffffffffff1673ffffffffffffffffffffffffffffffffffffffff16815260200190815260200160002060008201518160000160006101000a81548173ffffffffffffffffffffffffffffffffffffffff021916908373ffffffffffffffffffffffffffffffffffffffff1602179055506020820151816001019080519060200190610b4e929190611cd9565b506040820151816002019080519060200190610b6b929190611cd9565b506060820151816003019080519060200190610b88929190611cd9565b5060808201518160040160006101000a81548160ff0219169083151502179055509050506003819080600181540180825580915050906001820390600052602060002090600502016000909192909190915060008201518160000160006101000a81548173ffffffffffffffffffffffffffffffffffffffff021916908373ffffffffffffffffffffffffffffffffffffffff1602179055506020820151816001019080519060200190610c3d929190611cd9565b506040820151816002019080519060200190610c5a929190611cd9565b506060820151816003019080519060200190610c77929190611cd9565b5060808201518160040160006101000a81548160ff0219169083151502179055505050506040805190810160405280601b81526020017f52656769737465726564205375636365737366756c6c792021212100000000008152509150505b8090509392505050565b6060600080905060008090505b600480549050811015610d83573373ffffffffffffffffffffffffffffffffffffffff16600482815481101515610d1f57fe5b906000526020600020906003020160020160009054906101000a900473ffffffffffffffffffffffffffffffffffffffff1673ffffffffffffffffffffffffffffffffffffffff161415610d765781806001019250505b8080600101915050610cec565b50606081604051908082528060200260200182016040528015610dc057816020015b610dad611d59565b815260200190600190039081610da55790505b509050600080905060008090505b600480549050811015610f13573373ffffffffffffffffffffffffffffffffffffffff16600482815481101515610e0157fe5b906000526020600020906003020160020160009054906101000a900473ffffffffffffffffffffffffffffffffffffffff1673ffffffffffffffffffffffffffffffffffffffff161415610efe57600481815481101515610e5e57fe5b90600052602060002090600302016060604051908101604052908160008201548152602001600182015481526020016002820160009054906101000a900473ffffffffffffffffffffffffffffffffffffffff1673ffffffffffffffffffffffffffffffffffffffff1673ffffffffffffffffffffffffffffffffffffffff16815250508383815181101515610ef057fe5b906020019060200201819052505b81806001019250508080600101915050610dce565b5081935050505090565b6060600060019054906101000a900473ffffffffffffffffffffffffffffffffffffffff1673ffffffffffffffffffffffffffffffffffffffff163373ffffffffffffffffffffffffffffffffffffffff16141515610fb1576040517f08c379a0000000000000000000000000000000000000000000000000000000008152600401610fa8906124b4565b60405180910390fd5b6004805480602002602001604051908101604052809291908181526020016000905b8282101561107057838290600052602060002090600302016060604051908101604052908160008201548152602001600182015481526020016002820160009054906101000a900473ffffffffffffffffffffffffffffffffffffffff1673ffffffffffffffffffffffffffffffffffffffff1673ffffffffffffffffffffffffffffffffffffffff168152505081526020019060010190610fd3565b50505050905090565b6000600260003373ffffffffffffffffffffffffffffffffffffffff1673ffffffffffffffffffffffffffffffffffffffff16815260200190815260200160002060040160009054906101000a900460ff16905090565b60008060009054906101000a900460ff16905090565b6060600060019054906101000a900473ffffffffffffffffffffffffffffffffffffffff1673ffffffffffffffffffffffffffffffffffffffff163373ffffffffffffffffffffffffffffffffffffffff1614151561117a576040517f08c379a0000000000000000000000000000000000000000000000000000000008152600401611171906124b4565b60405180910390fd5b6003805480602002602001604051908101604052809291908181526020016000905b82821015611426578382906000526020600020906005020160a060405190810160405290816000820160009054906101000a900473ffffffffffffffffffffffffffffffffffffffff1673ffffffffffffffffffffffffffffffffffffffff1673ffffffffffffffffffffffffffffffffffffffff168152602001600182018054600181600116156101000203166002900480601f0160208091040260200160405190810160405280929190818152602001828054600181600116156101000203166002900480156112af5780601f10611284576101008083540402835291602001916112af565b820191906000526020600020905b81548152906001019060200180831161129257829003601f168201915b50505050508152602001600282018054600181600116156101000203166002900480601f0160208091040260200160405190810160405280929190818152602001828054600181600116156101000203166002900480156113515780601f1061132657610100808354040283529160200191611351565b820191906000526020600020905b81548152906001019060200180831161133457829003601f168201915b50505050508152602001600382018054600181600116156101000203166002900480601f0160208091040260200160405190810160405280929190818152602001828054600181600116156101000203166002900480156113f35780601f106113c8576101008083540402835291602001916113f3565b820191906000526020600020905b8154815290600101906020018083116113d657829003601f168201915b505050505081526020016004820160009054906101000a900460ff1615151515815250508152602001906001019061119c565b50505050905090565b60606001805480602002602001604051908101604052809291908181526020016000905b828210156116dd578382906000526020600020906005020160a060405190810160405290816000820160009054906101000a900473ffffffffffffffffffffffffffffffffffffffff1673ffffffffffffffffffffffffffffffffffffffff1673ffffffffffffffffffffffffffffffffffffffff168152602001600182018054600181600116156101000203166002900480601f0160208091040260200160405190810160405280929190818152602001828054600181600116156101000203166002900480156115665780601f1061153b57610100808354040283529160200191611566565b820191906000526020600020905b81548152906001019060200180831161154957829003601f168201915b50505050508152602001600282018054600181600116156101000203166002900480601f0160208091040260200160405190810160405280929190818152602001828054600181600116156101000203166002900480156116085780601f106115dd57610100808354040283529160200191611608565b820191906000526020600020905b8154815290600101906020018083116115eb57829003601f168201915b50505050508152602001600382018054600181600116156101000203166002900480601f0160208091040260200160405190810160405280929190818152602001828054600181600116156101000203166002900480156116aa5780601f1061167f576101008083540402835291602001916116aa565b820191906000526020600020905b81548152906001019060200180831161168d57829003601f168201915b505050505081526020016004820160009054906101000a900460ff16151515158152505081526020019060010190611453565b50505050905090565b6000809054906101000a900460ff1681565b6060600060199054906101000a900463ffffffff16820263ffffffff16341015151561172357600080fd5b6001600281111561173057fe5b6000809054906101000a900460ff16600281111561174a57fe5b14151561178c576040517f08c379a000000000000000000000000000000000000000000000000000000000815260040161178390612414565b60405180910390fd5b3373ffffffffffffffffffffffffffffffffffffffff16600060019054906101000a900473ffffffffffffffffffffffffffffffffffffffff1673ffffffffffffffffffffffffffffffffffffffff161415151561181f576040517f08c379a000000000000000000000000000000000000000000000000000000000815260040161181690612454565b60405180910390fd5b600260003373ffffffffffffffffffffffffffffffffffffffff1673ffffffffffffffffffffffffffffffffffffffff16815260200190815260200160002060040160009054906101000a900460ff1615156118b0576040517f08c379a00000000000000000000000000000000000000000000000000000000081526004016118a790612494565b60405180910390fd5b60008090505b8263ffffffff16811015611a01576118cc611bd2565b6060604051908101604052806001600480549050018152602001600060199054906101000a900463ffffffff1663ffffffff1681526020013373ffffffffffffffffffffffffffffffffffffffff168152509050600060199054906101000a900463ffffffff16600060159054906101000a900463ffffffff1601600060156101000a81548163ffffffff021916908363ffffffff16021790555060048190806001815401808255809150509060018203906000526020600020906003020160009091929091909150600082015181600001556020820151816001015560408201518160020160006101000a81548173ffffffffffffffffffffffffffffffffffffffff021916908373ffffffffffffffffffffffffffffffffffffffff1602179055505050505080806001019150506118b6565b506040805190810160405280601e81526020017f5469636b657420426f75676874205375636365737366756c6c792021212100008152509050809050919050565b3373ffffffffffffffffffffffffffffffffffffffff16600060019054906101000a900473ffffffffffffffffffffffffffffffffffffffff1673ffffffffffffffffffffffffffffffffffffffff16141515611ad4576040517f08c379a0000000000000000000000000000000000000000000000000000000008152600401611acb90612474565b60405180910390fd5b60026000806101000a81548160ff02191690836002811115611af257fe5b0217905550565b3373ffffffffffffffffffffffffffffffffffffffff16600060019054906101000a900473ffffffffffffffffffffffffffffffffffffffff1673ffffffffffffffffffffffffffffffffffffffff16141515611b8b576040517f08c379a0000000000000000000000000000000000000000000000000000000008152600401611b8290612474565b60405180910390fd5b60016000806101000a81548160ff02191690836002811115611ba957fe5b021790555080600060196101000a81548163ffffffff021916908363ffffffff16021790555050565b6060604051908101604052806000815260200160008152602001600073ffffffffffffffffffffffffffffffffffffffff1681525090565b828054600181600116156101000203166002900490600052602060002090601f016020900481019282601f10611c435780548555611c80565b82800160010185558215611c8057600052602060002091601f016020900482015b82811115611c7f578254825591600101919060010190611c64565b5b509050611c8d9190611d91565b5090565b60a060405190810160405280600073ffffffffffffffffffffffffffffffffffffffff1681526020016060815260200160608152602001606081526020016000151581525090565b828054600181600116156101000203166002900490600052602060002090601f016020900481019282601f10611d1a57805160ff1916838001178555611d48565b82800160010185558215611d48579182015b82811115611d47578251825591602001919060010190611d2c565b5b509050611d559190611d91565b5090565b6060604051908101604052806000815260200160008152602001600073ffffffffffffffffffffffffffffffffffffffff1681525090565b611db391905b80821115611daf576000816000905550600101611d97565b5090565b90565b600082601f8301121515611dc957600080fd5b8135611ddc611dd782612501565b6124d4565b91508082526020830160208301858383011115611df857600080fd5b611e03838284612617565b50505092915050565b6000611e1882356125eb565b905092915050565b6000611e2c82356125f5565b905092915050565b600080600060608486031215611e4957600080fd5b600084013567ffffffffffffffff811115611e6357600080fd5b611e6f86828701611db6565b935050602084013567ffffffffffffffff811115611e8c57600080fd5b611e9886828701611db6565b925050604084013567ffffffffffffffff811115611eb557600080fd5b611ec186828701611db6565b9150509250925092565b600060208284031215611edd57600080fd5b6000611eeb84828501611e0c565b91505092915050565b600060208284031215611f0657600080fd5b6000611f1484828501611e20565b91505092915050565b611f268161258d565b82525050565b6000611f3782612547565b808452602084019350611f498361252d565b60005b82811015611f7b57611f5f86835161223b565b611f6882612573565b9150606086019550600181019050611f4c565b50849250505092915050565b6000611f9282612552565b80845260208401935083602082028501611fab8561253a565b60005b84811015611fe4578383038852611fc683835161227d565b9250611fd182612580565b9150602088019750600181019050611fae565b508196508694505050505092915050565b611ffe8161259f565b82525050565b61200d81612605565b82525050565b600061201e82612568565b808452612032816020860160208601612626565b61203b81612659565b602085010191505092915050565b60006120548261255d565b808452612068816020860160208601612626565b61207181612659565b602085010191505092915050565b6000601982527f4c6f7474657279206973206e6f7420796574206f70656e6564000000000000006020830152604082019050919050565b6000603c82527f506c617965722063616e2774207265676973746572207768696c65206c6f747460208301527f657279206861732073746172746564206f722066696e69736865642e000000006040830152606082019050919050565b6000602a82527f4c6f7474657279206f776e65722f6f7267616e697a65722063616e277420627560208301527f79207469636b6574732e000000000000000000000000000000000000000000006040830152606082019050919050565b6000602482527f4f6e6c79206f776e65722063616e206f70656e206c6f74746572792070726f6360208301527f6573732e000000000000000000000000000000000000000000000000000000006040830152606082019050919050565b6000601482527f55736572206e6f7420726567697374657265642e0000000000000000000000006020830152604082019050919050565b6000601782527f4f6e6c79206f776e65722063616e2065786563757465200000000000000000006020830152604082019050919050565b6060820160008201516122516000850182612301565b5060208201516122646020850182612301565b5060408201516122776040850182611f1d565b50505050565b600060a0830160008301516122956000860182611f1d565b50602083015184820360208601526122ad8282612049565b915050604083015184820360408601526122c78282612049565b915050606083015184820360608601526122e18282612049565b91505060808301516122f66080860182611ff5565b508091505092915050565b61230a816125e1565b82525050565b600060a0820190506123256000830188611f1d565b81810360208301526123378187612049565b9050818103604083015261234b8186612049565b9050818103606083015261235f8185612049565b905061236e6080830184611ff5565b9695505050505050565b600060208201905081810360008301526123928184611f2c565b905092915050565b600060208201905081810360008301526123b48184611f87565b905092915050565b60006020820190506123d16000830184611ff5565b92915050565b60006020820190506123ec6000830184612004565b92915050565b6000602082019050818103600083015261240c8184612013565b905092915050565b6000602082019050818103600083015261242d8161207f565b9050919050565b6000602082019050818103600083015261244d816120b6565b9050919050565b6000602082019050818103600083015261246d81612113565b9050919050565b6000602082019050818103600083015261248d81612170565b9050919050565b600060208201905081810360008301526124ad816121cd565b9050919050565b600060208201905081810360008301526124cd81612204565b9050919050565b6000604051905081810181811067ffffffffffffffff821117156124f757600080fd5b8060405250919050565b600067ffffffffffffffff82111561251857600080fd5b601f19601f8301169050602081019050919050565b6000602082019050919050565b6000602082019050919050565b600081519050919050565b600081519050919050565b600081519050919050565b600081519050919050565b6000602082019050919050565b6000602082019050919050565b6000612598826125c1565b9050919050565b60008115159050919050565b60006003821015156125b957fe5b819050919050565b600073ffffffffffffffffffffffffffffffffffffffff82169050919050565b6000819050919050565b6000819050919050565b600063ffffffff82169050919050565b6000612610826125ab565b9050919050565b82818337600083830152505050565b60005b83811015612644578082015181840152602081019050612629565b83811115612653576000848401525b50505050565b6000601f19601f830116905091905056fea265627a7a7230582061f2ee2644e7721d9e74fb0999c3ca9a14d0224571bbefcf1cf0260dcd6559e56c6578706572696d656e74616cf50037",
  "source": "pragma solidity ^0.5.0;\r\npragma experimental ABIEncoderV2;\r\n\r\ncontract Lottery {\r\n    \r\n    enum UserType {Issuer,Investor}\r\n    enum LotteryState {NotStarted, Started,Finished}\r\n    \r\n    LotteryState public state;\r\n    \r\n    struct Player {\r\n        address payable playerAddress;\r\n        string playerName;\r\n        string emailId;\r\n        string phoneNumber;\r\n        bool isExist;\r\n    }\r\n    \r\n    struct LotteryTicket {\r\n        uint lotteryId;\r\n        uint price;\r\n        address payable ticketOwner;\r\n    }\r\n    \r\n\r\n    address private owner;\r\n    uint32 private totalAmount;\r\n    uint32 private ticketPrice;\r\n    Player[] public winner;\r\n    \r\n    mapping (address => Player) playerMap;\r\n    Player[] players;\r\n    LotteryTicket[] tickets;\r\n\r\n    constructor () public {\r\n        state = LotteryState.NotStarted;\r\n        owner = msg.sender;\r\n    }\r\n\r\n    function registerPlayer(string memory _name, string memory _emailId, string memory  _phoneNumber) public payable returns (string memory result) {\r\n        //Owner shouldn't be player\r\n        require(owner != msg.sender);\r\n        require((state != LotteryState.NotStarted) && (state != LotteryState.Finished), \"Player can't register while lottery has started or finished.\");\r\n        \r\n        result = \"FAIL !!!\";\r\n        if(!playerMap[msg.sender].isExist ) {\r\n            Player memory _player = Player(msg.sender, _name, _emailId, _phoneNumber,true);\r\n            playerMap[msg.sender] = _player;\r\n            players.push(_player);\r\n            result = \"Registered Successfully !!!\";\r\n        }\r\n\r\n        return(result);\r\n        // new event to be send to owner\r\n    }\r\n    \r\n    function startLottery(uint32 _ticketPrice) public{\r\n        require (owner == msg.sender, \"Only owner can open lottery process.\");\r\n        state = LotteryState.Started;\r\n        ticketPrice = _ticketPrice;\r\n    }\r\n\r\n    function stopLottery() public{\r\n        require (owner == msg.sender, \"Only owner can open lottery process.\");\r\n        state = LotteryState.Finished;\r\n        \r\n    }\r\n    \r\n    function buyLotteryTickets(uint32 _ticketNumbers) public payable returns (string memory result) {\r\n        require(msg.value >= (_ticketNumbers*ticketPrice));\r\n        require(state == LotteryState.Started, \"Lottery is not yet opened\");\r\n        require(owner != msg.sender, \"Lottery owner/organizer can't buy tickets.\");\r\n        require(playerMap[msg.sender].isExist,\"User not registered.\");\r\n        \r\n        for(uint i=0; i<_ticketNumbers; i++) {\r\n           LotteryTicket memory ticket = LotteryTicket(tickets.length+1,ticketPrice, msg.sender);\r\n            totalAmount = totalAmount + ticketPrice;\r\n            tickets.push(ticket);\r\n            }\r\n        result = \"Ticket Bought Successfully !!!\";\r\n        return(result);\r\n        //event to be sendout to owner\r\n    }\r\n    \r\n    function processLotteryWinners() public {\r\n        require(msg.sender == owner, \"Only owner can execute \");\r\n        uint32 prizeMoney = totalAmount/2;\r\n        /*uint32 firstPrizeMoney = prizeMoney * 50/100;\r\n        uint32 secondPrizeMoney = prizeMoney * 30/100;\r\n        uint32 thirdPrizeMondy = prizeMoney * 20/100;\r\n        */\r\n        //Randomly select the numbers\r\n        \r\n        uint randomNumber = uint(keccak256(abi.encodePacked(now,  tickets.length))) % tickets.length;\r\n        LotteryTicket memory winnerTicket = tickets[randomNumber - 1];\r\n        winnerTicket.ticketOwner.transfer(address(this).balance);\r\n        winner.push(playerMap[winnerTicket.ticketOwner]);\r\n        \r\n        //Send notification\r\n        \r\n        state = LotteryState.NotStarted;\r\n    }\r\n    \r\n    function getLotteryState() view public returns (LotteryState _state ) {\r\n         //require(msg.sender == owner, \"Only owner can execute \");\r\n         _state = state;\r\n    }\r\n\r\n    function isPlayerRegistered() view public returns (bool _status ) {\r\n        _status = playerMap[msg.sender].isExist;\r\n    }\r\n\r\n    function getLotteryTickets() view public returns (LotteryTicket[] memory _tickets ) {\r\n         require(msg.sender == owner, \"Only owner can execute \");\r\n         return(tickets);\r\n    }\r\n    \r\n    function getPlayers() view public returns (Player[] memory _players ) {\r\n         require(msg.sender == owner, \"Only owner can execute \");\r\n         return(players);\r\n    }\r\n    \r\n    function getWinner() view public returns (Player[] memory _players ) {\r\n        _players = winner;\r\n    }\r\n\r\n    function fetchMyTickets() view public returns (LotteryTicket[] memory _mytickets ) {\r\n        uint m = 0;\r\n        for(uint i=0; i < tickets.length; i++) {\r\n            if(tickets[i].ticketOwner == msg.sender) {\r\n                m++;\r\n            }\r\n        }\r\n       \r\n       LotteryTicket[] memory mytickets =  new LotteryTicket[](m);\r\n       uint j = 0;\r\n        for(uint i=0; i < tickets.length; i++) {\r\n            if(tickets[i].ticketOwner == msg.sender) {\r\n                mytickets[j] = tickets[i];\r\n            }\r\n            j++;\r\n        }\r\n        return(mytickets);\r\n    }\r\n    \r\n}\r\n",
  "sourcePath": "D:/ethereum_Lottery/contracts/Lottery.sol",
  "compiler": {
    "name": "solc",
    "version": "0.5.0+commit.1d4f565a.Emscripten.clang"
  },
  "schemaVersion": "3.0.10",
  "updatedAt": "2019-09-20T09:43:48.649Z",
  "devdoc": {
    "methods": {}
  },
  "userdoc": {
    "methods": {}
  }
}